:100000000C945B000C9478000C9478000C947800AD
:100010000C946E180C9478000C9478000C94780072
:100020000C9478000C9478000C94D2180C947800FE
:100030000C9478000C9478000C9478000C94780060
:100040000C9478000C9478000C9478000C94780050
:100050000C9478008305880591059905B205B905CA
:10006000C605C905D905E10509062D062A07760644
:100070007B0683069006DF06E706F006FD060D0701
:1000800016071B07230700073107070605040302AD
:100090000100102030405060707172737475767773
:1000A0006757473727170403122130405162737492
:1000B00065564737261511241FBECFE5D8E0DEBFB1
:1000C000CDBF10E0A0E6B0E0E6EAF3E302C00590A1
:1000D0000D92AC38B107D9F721E0ACE8B0E001C02F
:1000E0001D92A131B207E1F70E9455180C94D11965
:1000F0000C940000089748F46830710540F481E0E2
:100100004830510528F080E0089580E0089580E0AF
:100110000895FF920F931F93CF93DF93F82E8B01D7
:10012000EA010E947A008823A1F0CC0FDD1FCC0FDA
:10013000DD1FCC0FDD1FC353DF4FC00FD11F288140
:1001400081E090E002C0880F991FFA94E2F7822BB9
:100150008883DF91CF911F910F91FF900895FF92B7
:100160000F931F93CF93DF93F82E8B01EA010E9428
:100170007A008823A1F0CC0FDD1FCC0FDD1FCC0F40
:10018000DD1FC357DF4FC00FD11F288181E090E0F2
:1001900002C0880F991FFA94E2F7822B8883DF91BF
:1001A000CF911F910F91FF900895FF920F931F938E
:1001B000CF93DF93F82E8B01EA010E947A00882307
:1001C000A9F0CC0FDD1FCC0FDD1FCC0FDD1FC353FB
:1001D000DF4FC00FD11F288181E090E002C0880F5F
:1001E000991FFA94E2F7809582238883DF91CF915B
:1001F0001F910F91FF900895FF920F931F93CF933C
:10020000DF93F82E8B01EA010E947A008823A9F07F
:10021000CC0FDD1FCC0FDD1FCC0FDD1FC357DF4F11
:10022000C00FD11F288181E090E002C0880F991F84
:10023000FA94E2F7809582238883DF91CF911F9112
:100240000F91FF900895FF920F931F93CF93DF9329
:10025000F82E8B01EA010E947A00882391F0CC0FDE
:10026000DD1FCC0FDD1FCC0FDD1FC353DF4FC00FD1
:10027000D11F888190E002C095958795FA94E2F7A6
:100280008170DF91CF911F910F91FF9008952130E0
:10029000310519F40E94890008950E94D50008953F
:1002A000FF920F931F93CF93DF93F82E8B01EA01F8
:1002B0000E947A008823A1F0CC0FDD1FCC0FDD1F38
:1002C000CC0FDD1FC353DF4FC00FD11F288181E04A
:1002D00090E002C0880F991FFA94E2F78227888382
:1002E000DF91CF911F910F91FF90089560E070E032
:1002F00020E030E0AB01440F551F440F551F440F61
:10030000551F43535F4FFA01E20FF31F80832F5FA6
:100310003F4F28303105B9F76F5F7F4F6830710567
:1003200039F7089588309105A0F420E030E0880F77
:10033000991F880F991F880F991F83539F4F4FEF65
:10034000FC01E20FF31F40832F5F3F4F2830310540
:10035000B9F708958830910508F531E001C0330FF1
:100360008A95EAF760E070E080E090E0AB01440F2E
:10037000551F440F551F440F551F43535F4FFA013C
:10038000E80FF91F2081232B2083019688309105E7
:10039000B1F76F5F7F4F6830710531F7089588308E
:1003A0009105A0F420E030E04FEFF901EE0FFF1FC0
:1003B000EE0FFF1FEE0FFF1FE353FF4FE80FF91F74
:1003C00040832F5F3F4F2830310579F708958937F3
:1003D00049F08A3761F0883771F4862F90E00E94E7
:1003E000AA010895862F90E00E94CF010895862FDC
:1003F00090E00E949201089560E070E020E030E01B
:10040000AB01440F551F440F551F440F551F435751
:100410005F4FFA01E20FF31F80832F5F3F4F2830B9
:100420003105B9F76F5F7F4F6830710539F708956F
:100430006F5F7F4F2FEF30E0A90102C0440F551FBF
:100440006A95E2F74095B90102C0660F771F8A9559
:10045000E2F7CB01842308956F927F928F929F924F
:10046000AF92BF92CF92DF92EF92FF920F931F93C2
:10047000CF93DF936C015B01EA0139014701281733
:1004800039072CF4982F8D2D6901692E782E0A15C5
:100490001B050CF0ABC08C169D060CF0ABC0B30175
:1004A000C6010E9418029401220F331F220F331F2E
:1004B000220F331F23533F4FF901E00FF11F8083B9
:1004C000F901EA0DFB1D80839E01220F331F220FCD
:1004D000331F220F331F23533F4FF901E00FF11F4A
:1004E0008083F901EA0DFB1D8083A016B10674F428
:1004F0009C2F8D2FE401892E982E9A2D8B2D58013B
:10050000092F182F8C169D0664F5CBC09C2F8D2FBC
:10051000E401892E982E9A2D8B2D5801092F182F22
:100520007501AE01B701C6010E948900A401B7019F
:10053000C6010E948900AE01B701C3010E94890073
:10054000A401B701C3010E9489008FEFE81AF80ADD
:100550000E151F0534F7D6CF9A2D8B2D5801092F74
:10056000182FAE01B501C6010E948900AE01B80185
:10057000C6010E948900AE01B501C3010E94890035
:10058000AE01B801C3010E94890021968C169D0618
:1005900044F787C0B301C6010E9418029401220FDC
:1005A000331F220F331F220F331F23533F4FF901F5
:1005B000EA0DFB1D8083F901E00FF11F80839E018E
:1005C000220F331F220F331F220F331F23533F4F9E
:1005D000F901EA0DFB1D8083F901E00FF11F808313
:1005E0009C2F8D2FE401892E982E9ACF8C169D0674
:1005F0008CF230C0B301C6010E9418029E01220F86
:10060000331F220F331F220F331F23533F4FF90194
:10061000E00FF11F8083F901EA0DFB1D8083940137
:10062000220F331F220F331F220F331F23533F4F3D
:10063000F901E00FF11F8083F901EA0DFB1D8083B2
:10064000A016B1060CF488CF9A2D8B2D5801092FD6
:10065000182F66CFB301C6010E9418029E01220F17
:10066000331F220F331F220F331F23533F4FF90134
:10067000EA0DFB1D8083F901E00FF11F80839401D7
:10068000220F331F220F331F220F331F23533F4FDD
:10069000F901EA0DFB1D8083F901E00FF11F808352
:1006A0003FCFDF91CF911F910F91FF90EF90DF909F
:1006B000CF90BF90AF909F908F907F906F90089554
:1006C000282F30E0881F8827881FB9017595679506
:1006D0007595679575956795759567957595679502
:1006E0006270862BA9015595479555954795559567
:1006F00047954470842BD901B595A795A8708A2B8E
:10070000F901EE0FFF1FE0718E2BB901660F771F05
:10071000660F771F660F771F6072862BA901440F43
:10072000551F42955295507F5427407F542740745F
:10073000842B3695322F222737952795822B0895C3
:100740008F929F92AF92BF92CF92DF92EF92FF92E1
:100750000F931F93CF93DF93CDB7DEB7C054D1096A
:100760000FB6F894DEBF0FBECDBF80E4EDECF0E035
:10077000DE01119601900D928A95E1F780E00E94CA
:100780007601CE0101964C01A12CB12C74010F2EE3
:10079000F7E0CF2ED12CF02D00E010E0F7018081A2
:1007A00090E0002E02C0959587950A94E2F780FFAD
:1007B00006C0A501B601802F912F0E9489000F5F0E
:1007C0001F4F0830110551F7FFEFEF1AFF0A81E0C4
:1007D000C81AD10808F7EFEFAE1ABE0AF8E08F0E7C
:1007E000911C88E0A816B10489F6C05CDF4F0FB6F3
:1007F000F894DEBF0FBECDBFDF91CF911F910F9157
:10080000FF90EF90DF90CF90BF90AF909F908F9030
:1008100008958F929F92AF92BF92CF92DF92EF9204
:10082000FF920F931F93CF93DF93CDB7DEB7C054E2
:10083000D1090FB6F894DEBF0FBECDBF80E4EDEC5A
:10084000F0E0DE01119601900D928A95E1F780E0CB
:100850000E9476019E012F5F3F4F4901A12CB12CD0
:10086000740100E010E0C501880F991F880F991FDF
:10087000880F991FFC01E353FF4F6F01F70181912E
:100880007F010E946003F601E00FF11F80830F5F7C
:100890001F4F0830110591F7FFEFAF1ABF0A28E08C
:1008A000820E911C38E0A316B104D1F6C05CDF4F74
:1008B0000FB6F894DEBF0FBECDBFDF91CF911F9171
:1008C0000F91FF90EF90DF90CF90BF90AF909F90EF
:1008D0008F900895CF93DF93CDB7DEB7C054D10981
:1008E0000FB6F894DEBF0FBECDBF80E4EDECF0E0B4
:1008F000DE01119601900D928A95E1F740E050E0FB
:10090000A1E0B0E0AC0FBD1FA40FB51F87E090E0E1
:100910002C91FC01EE0FFF1FEE0FFF1FEE0FFF1FCC
:10092000E353FF4FE40FF51F20831896019780F7DC
:100930004F5F5F4F4830510519F7C05CDF4F0FB66E
:10094000F894DEBF0FBECDBFDF91CF910895009721
:1009500039F0E4E1F1E03197F1F700000197C9F7D0
:10096000089580E4EDE8F0E0ADECB0E001900D9288
:100970008A95E1F708954F925F926F927F928F92DE
:100980009F92AF92BF92CF92DF92EF92FF921F930E
:10099000CF93DF93182F5B01C12CD12C0F2EF7E0E2
:1009A0008F2E912CF02D4FEFA416B40621F0740178
:1009B000EC18FD0801C0760197012F5F3F4FC7017A
:1009C00001974FEFA416B40619F4622E732E02C0DD
:1009D000682E792E412C512CC0E0D0E01A3771F4EA
:1009E000462D572DBE01C2010E942301282F30E061
:1009F000A701BE01C2010E9447011FC0193771F44F
:100A0000AE01662D772DC2010E942301282F30E010
:100A1000AE01B701C2010E9447010FC0183769F447
:100A2000A201BE01862D972D0E942301282F30E0C0
:100A3000A201BE01C7010E9447012196C830D1051D
:100A400069F68FEF481A580A48E04416510421F617
:100A50008FEFC81AD80A48E0C416D10409F0A3CF12
:100A6000AB20A09419F0E12CF12C05C00F2EF7E07B
:100A7000EF2EF12CF02DC12CD12CC0E0D0E01A3794
:100A800031F4A701BE01C6010E94D5000FC019377D
:100A900031F4AE01B701C6010E94D50007C0183776
:100AA00029F4A601BE01C7010E94D5002196C830D5
:100AB000D10529F74FEFC41AD40A88E0C816D1042B
:100AC000E1F6DF91CF911F91FF90EF90DF90CF90F3
:100AD000BF90AF909F908F907F906F905F904F905E
:100AE00008950F931F93CF93C62F80E00E94760145
:100AF0008C2F90E08B31910508F0B9C1FC01E65DC7
:100B0000FF4F0C94F01884E690E00E947A11AFC178
:100B100040ED57E06CED70E084E190E00E945A0DEA
:100B2000A6C142E068EE73E082E090E00E94EF0828
:100B30009EC161E070E085E090E00E94FD1060E001
:100B400070E085E090E00E94FD1061E070E085E0DB
:100B500090E00E94FD1060E070E085E090E00E946F
:100B6000FD1085C168EE73E08FE090E00E94731283
:100B70007EC108EE13E024E630E04FEF5FEF6AE756
:100B800070E082E090E00E94C41571C10E94040CE4
:100B90006EC1C0E04C2F447050E06C2F637070E069
:100BA00022EC31E081E090E00E94710CCF5FC83010
:100BB00089F743E050E066E08CEB92E00E94550834
:100BC00056C160E971E08AE790E00E94D20B60E9CB
:100BD00071E088E790E00E94D20B60E971E089E75C
:100BE00090E00E94D20B60E971E08AE790E00E94F9
:100BF000D20B60E971E088E790E00E94D20B60E9D7
:100C000071E089E790E00E94D20B80E00E947601BB
:100C10002EC180E00E9476014FEF50E060E273E069
:100C200080E090E00E94A41540E050E060E273E0B4
:100C300080E090E00E94A4154FEF50E060E273E086
:100C400081E090E00E94A4154FEF50E060E273E075
:100C500081E090E00E94A4150AC120E030E048E85D
:100C600053E166E272E08AE70E942C1321E030E053
:100C700048E853E166E272E08AE70E942C1320E024
:100C800030E048E853E166E272E08AE70E942C1304
:100C900021E030E048E853E166E272E08AE70E9432
:100CA0002C1320E030E048E853E166E272E088E788
:100CB0000E942C1321E030E048E853E166E272E044
:100CC00088E70E942C1320E030E048E853E166E218
:100CD00072E089E70E942C1321E030E048E853E1FC
:100CE00066E272E089E70E942C13C1C08CEB92E0AF
:100CF0000E949F14BCC040E068EE73E082E090E088
:100D00000E94EF08B4C008EE13E024E630E041E0B2
:100D100050E06AE770E081E090E00E94C415A7C04F
:100D200021E030E048EC50E060E070E08AE70E94AB
:100D3000D7138CED95E00E94A70421E030E048EC49
:100D400050E061E070E08AE70E94D7138CED95E0F7
:100D50000E94A70422E030E048EC50E060E070E040
:100D60008AE70E94D7138CED95E00E94A70422E049
:100D700030E048EC50E061E070E08AE70E94D71371
:100D80008CED95E00E94A70421E030E048EC50E0B3
:100D900060E070E089E70E94D7138CED95E00E9437
:100DA000A70421E030E048EC50E061E070E089E722
:100DB0000E94D7138CED95E00E94A70458C043E031
:100DC00050E062E08CEB92E00E94550850C022E0B7
:100DD00041E068E572E08AEF90E00E94E40D47C0D0
:100DE00008EE13E024E630E04FEF5FEF6AE770E0D3
:100DF00081E090E00E94C4153AC00E94621537C09D
:100E000008EE13E024E630E04FEF5FEF6AE770E0B2
:100E100081E090E00E94C4152AC023E041E068E52B
:100E200072E08AEF90E00E94E40D21C084E890E037
:100E30000E94550B1CC046E068EE73E082E090E033
:100E40000E94EF0814C064EF71E088EC90E00E940B
:100E5000E0070DC064EF71E084E690E00E94930724
:100E600006C060E971E084E190E00E941518CF911E
:100E70001F910F910895CF92DF92EF92FF920F93FF
:100E80001F93CF93DF936C01CB01019718161906BE
:100E9000F4F5625071098601060F171F760181E093
:100EA000E81AF108C0E0D0E0F8018081682F6F7087
:100EB00070E082958F70AE0190E00E942301F801EE
:100EC0009181282F30E0692F6F7070E0892F829513
:100ED0008F70AE0190E00E9447012196C830D10585
:100EE00019F701501109E016F106E1F610C0F601FC
:100EF0008081682F6F7070E082958F70AE0190E0F6
:100F00000E94D5002196C830D10589F703C0C0E002
:100F1000D0E0EDCFDF91CF911F910F91FF90EF9037
:100F2000DF90CF900895CF92DF92EF92FF920F93D0
:100F30001F93CF93DF93CDB7DEB760970FB6F894CA
:100F4000DEBF0FBECDBF7C016B0140E150E0BE01B2
:100F50006F5F7F4F81E00E94BF161E141F040CF5C7
:100F600000E010E0A80147705078552334F4415058
:100F70005109486F5F6F4F5F5F4F60E070E084E042
:100F800090E00E948900C6010E94A7046CE170E015
:100F9000CE0101960E943B070F5F1F4FE016F1063E
:100FA00009F760960FB6F894DEBF0FBECDBFDF9194
:100FB000CF911F910F91FF90EF90DF90CF90089508
:100FC0004F925F926F927F928F929F92AF92BF9259
:100FD000CF92DF92EF92FF920F931F93CF93DF9305
:100FE000CDB7DEB76C970FB6F894DEBF0FBECDBF9E
:100FF0007C016B014CE150E0BE016F5F7F4F80E0F0
:101000000E94BF161E141F04CCF500E010E0689487
:10101000882482F8912C0F2EF3E0AF2EB12CF02D06
:101020000F2EF7E06F2EF02D712C412C512C0E94C9
:101030005619B5010E94DC180197880D991D88305A
:10104000910514F0862D972D4C01992314F4842CCE
:10105000952C6CE170E0CE0101960E943B07A40143
:10106000662D772D842D952D0E948900C6010E9442
:10107000A7040F5F1F4FE016F106C9F66C960FB676
:10108000F894DEBF0FBECDBFDF91CF911F910F91BE
:10109000FF90EF90DF90CF90BF90AF909F908F9098
:1010A0007F906F905F904F9008955F926F927F92C4
:1010B0008F929F92AF92BF92CF92DF92EF92FF9268
:1010C0000F931F93CF93DF93CDB7DEB76C970FB617
:1010D000F894DEBF0FBECDBF682E592ED62E4A0122
:1010E0004CE150E0BE016F5F7F4F80E00E94BF1671
:1010F000181419040CF05AC0A12CB12C762CC52C54
:10110000E12C0F2EF7E0FF2EF02D00E010E04E2D29
:101110006F2D8D2D0E94FD16882341F0A80167E0F8
:1011200070E080E090E00E94890007C0A80167E0BD
:1011300070E080E090E00E94D5000F5F1F4FFA94AE
:101140000830110521F7872D9C2D0E94A7046CE122
:1011500070E0CE0101960E943B07E39488E0E8121C
:10116000D0CF04E110E0872D9C2D0E94A7046CE1F4
:1011700070E0CE0101960E943B070150110999F7DA
:101180008FEFA81AB80A8A149B0409F0B9CF0EC0D1
:10119000862D952D0E94A7046CE170E0CE0101968A
:1011A0000E943B070150110999F703C00AE010E0C3
:1011B000EFCF6C960FB6F894DEBF0FBECDBFDF91B8
:1011C000CF911F910F91FF90EF90DF90CF90BF9044
:1011D000AF909F908F907F906F905F9008952F9227
:1011E0003F924F925F926F927F928F929F92AF92B7
:1011F000BF92CF92DF92EF92FF920F931F93CF9304
:10120000DF93CDB7DEB7AE970FB6F894DEBF0FBE53
:10121000CDBF20E2E4E6F0E0DE01119601900D92F0
:101220002A95E1F7181619060CF026C29EA78DA77D
:101230001CA61BA66FA378A7742E27E030E03CA362
:101240002BA31AA219A2412C512C372C4114510462
:1012500069F489A19AA101969AA389A3049759F4E4
:101260001AA219A244244394512C05C0E9A1FAA161
:101270003196FAA3E9A389A09AA0880C991C880C3E
:10128000991C880C991C0F2EFFE16F2E712CF02DEC
:10129000681879080F2EF7E02F2EF02DA12CB12C15
:1012A000EE24E394F12CEC0EFD1EE60CF71CCC248E
:1012B000C394D12CCC0EDD1EC80CD91C00E010E06C
:1012C000402F622D832D0E94FD16882391F041143A
:1012D000510441F4F601608170E0A501C8010E944B
:1012E000890007C0F701608170E0A501C8010E9474
:1012F00089000F5F1F4FF1E0EF1AF1082FEFC21ABC
:10130000D20A08301105E1F63FEFA31AB30A2A9476
:101310008FEF2812C5CF8FA198A50E94A70480E067
:101320000E947601EBA1FCA13197FCA3EBA3EF2B6C
:1013300009F08CCF732C27E030E03EA32DA31CA234
:101340001BA2212C312C2114310469F48BA19CA106
:1013500001969CA38BA3049759F41CA21BA22224E0
:101360002394312C05C0EBA1FCA13196FCA3EBA387
:101370008BA09CA0880C991C880C991C880C991C2B
:101380002FE130E0281939093AA329A30F2EF7E0FD
:101390004F2EF02DA12CB12CCC24C394D12CCC0EEB
:1013A000DD1E89A19AA1C80ED91EEE24E394F12C6A
:1013B000EC0EFD1EE80CF91C512C07E010E0452D49
:1013C000642D872D0E94FD16882391F0211431048D
:1013D00041F4F7018081A501B80190E00E948900E5
:1013E00007C0F6018081A501B80190E00E94890044
:1013F000015011095394F1E0CF1AD1082FEFE21AEE
:10140000F20A38E05312DBCF8FEFA81AB80A4A94D9
:101410009FEF4912C1CF8FA198A50E94A70480E039
:101420000E947601EDA1FEA13197FEA3EDA3EF2B63
:1014300009F089CF27E030E03AA729A71EA21DA214
:10144000412C512C4114510469F48DA19EA10196A7
:101450009EA38DA3049759F41EA21DA24424439475
:10146000512C05C0EDA1FEA13196FEA3EDA32DA147
:101470003EA1220F331F220F331F220F331F3AA327
:1014800029A38FE190E0821B930B9CA38BA30F2ECB
:10149000F7E02F2EF02D812C912C672C722CCC2470
:1014A000C394D12CCC0EDD1EEBA1FCA1CE0EDF1E11
:1014B000EE24E394F12CEC0EFD1E29A13AA1E20EDC
:1014C000F31E0F2EF7E03F2EF02D01E010E0580143
:1014D00031E0A31AB108432D672D862D0E94FD1619
:1014E000882391F04114510441F4F701608170E0C8
:1014F000A401C5010E94890007C0F601608170E067
:10150000A401C5010E9489000F5F1F4F3A94F1E0CA
:10151000CF1AD1082FEFE21AF20A3FEF3312D7CFDA
:101520008FEF881A980A7A947312B9CF762C8FA10C
:1015300098A50E94A70480E00E947601E9A5FAA57B
:101540003197FAA7E9A7EF2B09F07CCF27E030E02D
:101550003EA32DA31CA21BA2412C512C362C4114BE
:10156000510469F48BA19CA101969CA38BA30497C1
:1015700059F41CA21BA244244394512C05C0EBA196
:10158000FCA13196FCA3EBA36BA07CA0660C771C9E
:10159000660C771C660C771C2FE130E026193709A2
:1015A0003AA329A30F2EF7E02F2EF02D812C912C9A
:1015B000832D322C282EAA24A394B12CAC0EBD1E50
:1015C00089A19AA1A80EB91ECC24C394D12CCC0E0B
:1015D000DD1EC60CD71C07E010E0EE24E394F12CCE
:1015E000402F632D822D0E94FD16882391F0411417
:1015F000510441F4F6018081A401B80190E00E94F9
:10160000890007C0F5018081A401B80190E00E9423
:101610008900FFEFEF1AFF0A0150110921E0A21A19
:10162000B1083FEFC31AD30A89E0E816F104C1F606
:101630009FEF891A990A3A94EFEF3E12BCCF322CF1
:101640008FA198A50E94A70480E00E9476012DA199
:101650003EA1215031093EA32DA3232B09F07FCFBA
:10166000722C8BA59CA501969CA78BA7EDA5FEA52A
:10167000E817F90709F0E1CDAE960FB6F894DEBF92
:101680000FBECDBFDF91CF911F910F91FF90EF90D3
:10169000DF90CF90BF90AF909F908F907F906F9092
:1016A0005F904F903F902F9008958F929F92AF92AE
:1016B000BF92CF92DF92EF92FF920F931F93CF933F
:1016C000DF9300D000D01F92CDB7DEB74C016894F5
:1016D000CC24C7F8D12CF40181914F01882309F45F
:1016E00041C0BE016F5F7F4F0E94D516CE010196AB
:1016F0007C016894AA24A1F8B12C00E010E0F70165
:101700008081282F30E0C601002E02C09595879574
:101710000A94E2F782239323892B31F0A80167E032
:1017200070E0C5010E9489000F5F1F4F083011054E
:1017300031F7FFEFEF1AFF0A8FEFA81AB80A97E008
:10174000A916B104D1F606E010E088EE93E00E94FD
:10175000A7046FEF7FEF89E70E94BB0401501109D6
:10176000A1F7B9CF08E010E088EE93E00E94A7044B
:101770006FEF7FEF89E70E94BB0401501109A1F7C9
:101780000F900F900F900F900F90DF91CF911F91BE
:101790000F91FF90EF90DF90CF90BF90AF909F9010
:1017A0008F900895DF92EF92FF920F931F93CF9344
:1017B000DF93C0E0082F162FD72F80E00E9476011C
:1017C000F02E6C2F802F0E94E701E12EDD2E812F5D
:1017D0009D2F0E94A704CF5FC83079F7C7E080E053
:1017E0000E9476016C2F8F2D0E94E7018E2D9D2D7A
:1017F0000E94A704C15098F7DF91CF911F910F91DC
:10180000FF90EF90DF900895AF92BF92CF92DF925A
:10181000EF92FF920F931F93CF93DF9380E00E948C
:1018200076016894AA24A1F8B12C0F2EFAE0EF2ECD
:10183000F12CF02D08EE13E00F2EFFEECF2EF2E08C
:10184000DF2EF02DCEEED2E080E00E947601CE01B8
:101850000E94A7048FEF0E94760184E690E00E9428
:10186000A704CE01B7010E94DC18C8010E94DC1851
:10187000615F7F4FC61BD70B1C161D062CF3C801DA
:101880000E94A704CEEED2E080E00E947601C6015D
:101890008C1B9D0B0E94A7048FEF0E94760184E6AB
:1018A00090E00E94A704CE01B7010E94DC18C80195
:1018B0000E94DC18615F7F4FC61BD70B1C161D06EC
:1018C0001CF381E0A81AB10809F0BCCFDF91CF91D9
:1018D0001F910F91FF90EF90DF90CF90BF90AF904E
:1018E00008952F923F924F925F926F927F928F92C4
:1018F0009F92AF92BF92CF92DF92EF92FF920F939F
:101900001F93CF93DF9300D000D000D0CDB7DEB7C8
:10191000181619060CF063C019012A013B019C83BB
:101920008B831A8219820F2EF7E08F2E912CF02DC7
:101930005B01E894A1F822E0621A71081E821D8200
:1019400064010EC08D819E818830910524F464016C
:10195000C81AD90A05C0CD80DE8098E0C91AD1081E
:1019600080E00E94760181E090E00E94A704F89454
:1019700076018601960140E050E060E070E080E092
:1019800090E00E942C021414150414F40E946A04BE
:1019900021E0A216B10411F40E94A00332E0631604
:1019A000710410F40E9409047894C1010E94A704F4
:1019B00080E00E9476018D819E8101969E838D83B9
:1019C000409709F0BFCF29813A812F5F3F4F3A837B
:1019D00029838B819C818217930709F0AFCF2696CC
:1019E0000FB6F894DEBF0FBECDBFDF91CF911F9130
:1019F0000F91FF90EF90DF90CF90BF90AF909F90AE
:101A00008F907F906F905F904F903F902F900895B0
:101A10005F926F927F928F929F92AF92BF92CF927E
:101A2000DF92EF92FF920F931F93CF93DF93542E89
:101A30003901C0E0D0E0062F10E0882E912C0F2E47
:101A4000F7E0AF2EB12CF02D6894CC24C3F8D12C44
:101A500087E058120BC07501EC1AFD0AA6014C1B59
:101A60005D0BB801C4010E94D50008C0AE01415011
:101A70005109B801C4010E94D5007E01A701B80137
:101A8000C4010E948900C3010E94A7042196C830A6
:101A9000D105F1F6DF91CF911F910F91FF90EF905B
:101AA000DF90CF90BF90AF909F908F907F906F907E
:101AB0005F9008958F929F92AF92BF92CF92DF92E4
:101AC000EF92FF920F931F93CF93DF937C015B0103
:101AD0006A0180E00E94760100E010E0C0E0D0E002
:101AE00008C01E141F040CF062C0D0E0912C812CA1
:101AF00021C00E94561981709078992324F401978F
:101B00008E6F9F6F0196AC01440F551F440F551FF8
:101B1000440F551F481B590BBE01C8010E94890084
:101B20002196C830D10529F70F5F1F4F08301105E6
:101B3000A9F6D7CF0E9456198C010E9456198770BA
:101B40009078992324F40197886F9F6F0196BC01C8
:101B5000C82F891531F1C80187709078992324F432
:101B60000197886F9F6F0196182F8815D1F07727FE
:101B700040E050E090E00E942301882339F0950175
:101B800040E06C2F812F0E94080D06C0950147E0B0
:101B90006C2F812F0E94080DC6010E94A7049C2E65
:101BA000812EDF5F8D2F90E08E159F051CF2DF9157
:101BB000CF911F910F91FF90EF90DF90CF90BF904A
:101BC000AF909F908F9008952F923F924F925F9287
:101BD0006F927F928F929F92AF92BF92CF92DF923D
:101BE000EF92FF920F931F93CF93DF93CDB7DEB7A2
:101BF000E8970FB6F894DEBF0FBECDBF9CAB8BABA2
:101C000078AF6FAB2DAB80E00E9476010E94561931
:101C100087709078992324F40197886F9F6F0196BD
:101C20005C010E94561987709078992324F40197DB
:101C3000886F9F6F01964C010E94561987709078AB
:101C4000992324F40197886F9F6F01966C011E0100
:101C500021E3220E311CFE01319613C08BA99CA9F1
:101C6000892B09F4B1C244244394512C6624639413
:101C7000712CEE24E394F12CFE01B997FAABE9AB99
:101C80000BC091828082B382A282D582C4823696B2
:101C90002E163F06B1F7E2CF0E94561963E070E0BE
:101CA0000E94DC18892B69F50E94561963E070E0E8
:101CB0000E94DC18009759F40E94561963E070E006
:101CC0000E94DC187C01F1E0EF1AF1081AC08130A3
:101CD000910559F40E94561963E070E00E94DC18E7
:101CE0003C0121E0621A71080CC0029751F40E9475
:101CF000561963E070E00E94DC182C01E1E04E1AF6
:101D00005108FFEFEF16FF0699F48114910491F446
:101D10000E94561963E070E00E94DC1821E030E078
:101D2000019709F020E0E22EF32E21E02EAB03C054
:101D30001EAA01C01EAA8FEF6816780691F4A1149E
:101D4000B10489F40E94561963E070E00E94DC1827
:101D500021E030E0019709F020E0622E732E01E0CF
:101D600003C000E001C000E09FEF4916590691F45E
:101D7000C114D10489F40E94561963E070E00E94F6
:101D8000DC1821E030E0019709F020E0422E532ECC
:101D900011E003C010E001C010E0E1E0EE16F10434
:101DA000A9F4F7E08F16910489F40E94561963E0B4
:101DB00070E00E94DC18EE24E394F12C019709F006
:101DC000E12CF194E194F10821E02EAB81E068165A
:101DD0007104A1F497E0A916B10481F40E94561988
:101DE00063E070E00E94DC1866246394712C019714
:101DF00009F0612C71946194710801E0E1E04E16E4
:101E00005104A1F4F7E0CF16D10481F40E945619D1
:101E100063E070E00E94DC1844244394512C019745
:101E200009F0412C51944194510811E02EA922232C
:101E3000F1F161147104E1F487E0A816B10459F0DE
:101E4000A114B10469F00E94561980FF0DC06624E8
:101E50006394712C0DC066246A9477247A9408C028
:101E600066246394712C04C066246A9477247A945F
:101E700041145104E1F497E0C916D10459F0C1149A
:101E8000D10469F00E94561980FF0DC04424439488
:101E9000512C0DC044244A9455245A9408C044241B
:101EA0004394512C04C044244A9455245A9400234A
:101EB000F1F1E114F104E1F4E7E08E16910459F038
:101EC0008114910469F00E94561980FF0DC0EE2420
:101ED000E394F12C0DC0EE24EA94FF24FA9408C098
:101EE000EE24E394F12C04C0EE24EA94FF24FA9447
:101EF00041145104E1F4F3E0CF16D10459F0C114B8
:101F0000D10469F00E94561980FF0DC04424439407
:101F1000512C0DC044244A9455245A9408C044249A
:101F20004394512C04C044244A9455245A941123B8
:101F300089F161147104E1F427E0A216B10459F0AB
:101F4000A114B10469F00E94561980FF0DC06624E7
:101F50006394712C0DC066246A9477247A9408C027
:101F600066246394712C04C066246A9477247A945E
:101F7000E114F10479F487E08816910489F1811461
:101F8000910461F00E94561980FF0FC1EE24E39482
:101F9000F12C61C081149104F1F403C0EE24E394A8
:101FA000F12CA114B10449F4C114D104A9F197E0B2
:101FB000C916D10409F0FEC02FC0E7E0AE16B10487
:101FC00009F0FDC0C114D10439F1F7E0CF16D104F6
:101FD00009F0F5C021C027E082169104E1F504C0A4
:101FE000EE24EA94FF24FA94A114B10449F4C11434
:101FF000D10491F087E0C816D10409F0DBC00CC011
:1020000097E0A916B10409F0DAC0C114D10421F097
:10201000E7E0CE16D10449F50E94561963E070E05E
:102020000E94DC18009741F08130910541F0029741
:1020300041F4412C512C05C0E12CF12C02C0612C43
:10204000712C8114910439F4FFEFEF16FF0619F497
:10205000EE24E394F12CA114B10439F42FEF6216AD
:10206000720619F466246394712CC114D10439F4F6
:102070008FEF4816580619F444244394512C97E0E6
:102080008916910441F4E1E0EE16F10421F4EE2406
:10209000EA94FF24FA94F7E0AF16B10441F421E08A
:1020A0006216710421F466246A9477247A9487E096
:1020B000C816D10441F491E04916510421F4442496
:1020C0004A9455245A948E0C9F1CA60CB71CC40C21
:1020D000D51CEDA9E13079F4A601B501C4010E9437
:1020E00089008FA998AD0E94A704A601B501C4017B
:1020F0000E94D50051C0FDA9F23051F4A601B501EE
:10210000C4010E9450018FA998AD0E94A70444C049
:102110002DA9233009F040C0FE01319684A195A17C
:1021200093A782A786A197A195A784A780A591A52B
:1021300097A786A7369789A99AA98E179F0771F73F
:102140009A828982BC82AB82DE82CD828E010F5F51
:102150001F4FF80144815581628173818081918193
:102160000E9489000A5F1F4F2016310691F78FA940
:1021700098AD0E94A7048E010F5F1F4FF8014481A4
:10218000558162817381808191810E94D5000A5FAF
:102190001F4F2016310691F78BA99CA901979CAB84
:1021A0008BAB892B09F078CD0FC0EE24EA94FF2485
:1021B000FA9451CF8114910409F050CF45CF811486
:1021C000910409F441CF51CFE8960FB6F894DEBFE1
:1021D0000FBECDBFDF91CF911F910F91FF90EF9078
:1021E000DF90CF90BF90AF909F908F907F906F9037
:1021F0005F904F903F902F9008958F929F92AF9253
:10220000BF92CF92DF92EF92FF920F931F93CF93E3
:10221000DF937C01EB016130710531F480E00E94B5
:10222000760100E010E009C08FEF0E947601F9CF3F
:102230000F3F81E018070CF050C00E9456198770BC
:102240009078992324F40197886F9F6F0196C82E88
:10225000D92E0E94561987709078992324F40197FB
:10226000886F9F6F0196A82EB92E0E94561987700D
:102270009078992324F40197886F9F6F0196882E98
:10228000992E209751F4AC016A2D7B2D8C2D9D2D1C
:102290000E942301882361F20DC0C130D10541F6AF
:1022A000482F592F6A2D7B2D8C2D9D2D0E942301A7
:1022B0008111BECF9E01482D592D6A2D7B2D8C2D6D
:1022C0009D2D0E944701C7010E94A7040F5F1F4F69
:1022D0000F3F81E0180709F0B0CFDF91CF911F9138
:1022E0000F91FF90EF90DF90CF90BF90AF909F90B5
:1022F0008F900895AF92BF92CF92DF92EF92FF92AC
:102300000F931F93CF93DF93181619060CF044C058
:102310006C01E12CF12C0E9456198370907899235E
:1023200024F401978C6F9F6F01968C011816190683
:102330001CF5C0E0D0E00E9456195C010E945619BD
:10234000BC0167707078772334F461507109686F4D
:102350007F6F6F5F7F4FC50187709078992324F45A
:102360000197886F9F6F019647E050E00E948900B7
:1023700021960C171D07F9F688EE93E00E94A7043A
:102380006FEF7FEF8AE70E94BB048FEFE81AF80A2D
:10239000CE14DF0409F0BFCFDF91CF911F910F91D1
:1023A000FF90EF90DF90CF90BF90AF9008955F9235
:1023B0006F927F928F929F92AF92BF92CF92DF9255
:1023C000EF92FF920F931F93CF93DF93582ED62F48
:1023D000C72F7A0180E00E9476016D2E7C2EC12CE1
:1023E000D12C0F2EF7E0AF2EB12CF02D430183013D
:1023F000C0E0D0E0E114F10439F0F80180819501EA
:10240000281B3109C90103C0F401808190E0FAE77B
:102410005F1206C0AC01BE01C6010E94890010C057
:1024200029E7521206C0AE01BC01C6010E94890014
:1024300007C038E7531204C0A601BE010E948900FC
:1024400021960F5F1F4F8FEF881A980AC830D10569
:1024500089F6EFEFCE1ADE0AF8E06F0E711C28E065
:10246000C216D10419F6DF91CF911F910F91FF9001
:10247000EF90DF90CF90BF90AF909F908F907F9024
:102480006F905F900895EF92FF920F931F93CF93F9
:10249000DF938C01FC01A62FB72FBC01605C7F4F3E
:1024A0007F0190819D014C91941710F49F5F908360
:1024B000E70198811196E9012881291718F49150B4
:1024C000E70198833196E617F70751F740E050E0AF
:1024D000B8018AE70E94D711DF91CF911F910F9128
:1024E000FF90EF9008952F923F924F925F926F92DC
:1024F0007F928F929F92AF92BF92CF92DF92EF9294
:10250000FF920F931F93CF93DF93CDB7DEB7C058E1
:10251000D1090FB6F894DEBF0FBECDBF4C011B0131
:102520008E010F5F1F4F7E0181E4E80EF11C6701F1
:102530006894BB24B2F8F801B1928F010E94561939
:1025400087709078992324F40197886F9F6F019684
:10255000F70181937F01C016D10669F704C01814F2
:102560001904BCF05FC008E010E0E22CF32C4AE74D
:10257000BE016F5B7F4FCE0101960E9443127E2CFD
:102580006F2C8E2D9F2D0E94A7040150110979F701
:10259000E6CF220C331C220C331CA12CB12C6E0173
:1025A000F1E4CF0ED11C4C2C5D2C08E010E04AE782
:1025B000642D752DCE0101960E944312872D962D14
:1025C0000E94A7040150110991F7C1010E94A704BC
:1025D0006894EE24E5F8F12C0E9456198C010E94B3
:1025E00056190F731078112334F401501109006C3F
:1025F0001F6F0F5F1F4FF601E00FF11F877090787C
:10260000992324F40197886F9F6F0196808381E05E
:10261000E81AF10809F7EFEFAE1ABE0A8A149B0414
:1026200009F0C3CFC058DF4F0FB6F894DEBF0FBE1E
:10263000CDBFDF91CF911F910F91FF90EF90DF9071
:10264000CF90BF90AF909F908F907F906F905F9052
:102650004F903F902F9008952F923F925F926F92EC
:102660007F928F929F92AF92BF92CF92DF92EF9222
:10267000FF920F931F93CF93DF93CDB7DEB7C05870
:10268000D1090FB6F894DEBF0FBECDBF782E562EFF
:10269000672E1A0149015E0181E4A80EB11C850173
:1026A0006501DE0111967D01F70111927F010E9403
:1026B000561987709078992324F40197886F9F6F3B
:1026C0000196D6018D936D01E016F10669F76894C5
:1026D000EE24E3F8F12CD501FE01319680819D9125
:1026E000891710F48F5F80833196E017F107B1F7F7
:1026F000A401BE016F5F7F4F872D0E94D711D52C9B
:10270000C62C852D962D0E94A704B1E0EB1AF10886
:1027100011F79E012F573F4FF50187E081932E1748
:102720003F07E1F7C1010E94A7046894EE24E3F893
:10273000F12C9501FE013196AF018081D9019D9167
:102740009D01891710F48F5F8083DA018C919817AF
:1027500010F481508C933196E017F10769F7A401CA
:10276000BE016F5F7F4F872D0E94D7118D2D9C2D4D
:102770000E94A704B1E0EB1AF108D9F6C058DF4F68
:102780000FB6F894DEBF0FBECDBFDF91CF911F9182
:102790000F91FF90EF90DF90CF90BF90AF909F9000
:1027A0008F907F906F905F903F902F9008952F9221
:1027B0003F924F925F926F927F928F929F92AF92D1
:1027C000BF92CF92DF92EF92FF920F931F93CF931E
:1027D000DF93CDB7DEB7C058D1090FB6F894DEBF8E
:1027E0000FBECDBF282E7B013A0159018E010F5734
:1027F0001F4FFE01EF5BFF4F11920E171F07E1F70E
:10280000812C912CCC24C394D12C312C412C0F2E13
:10281000F7E05F2EF02D81E0A816B10421F590E4D9
:1028200089169104A4F50E9456198F739078992304
:1028300024F40197806C9F6F01969C01E1E4F0E025
:10284000EC0FFD1FE80FF91F80818111ECCF8FEF96
:10285000881A980AE1E4F0E0EC0FFD1FE20FF31F85
:1028600091E0908314C082E0A816B10481F490E452
:102870008916910464F4E1E4F0E0EC0FFD1FE80D2B
:10288000F91D80818F5F80838FEF881A980AFE017F
:10289000EF5BFF4F20E030E0DF0180819FEF980F7A
:1028A000963010F48F5F808331968C91873011F4CD
:1028B0002F5F3F4F0E171F0779F72034310511F4B2
:1028C000C32CD42CDE011196FE01EF5BFF4FE11407
:1028D000F10419F480818C9304C08081952D981B9C
:1028E0009C9331961196E017F10789F7C3010E9476
:1028F000A704432D542DBE016F5F7F4F822D0E9490
:10290000D711C114D10409F086CFC058DF4F0FB6DC
:10291000F894DEBF0FBECDBFDF91CF911F910F9115
:10292000FF90EF90DF90CF90BF90AF909F908F90EF
:102930007F906F905F904F903F902F900895BF923F
:10294000CF92DF92EF92FF920F931F93CF93DF937B
:10295000EC0180E00E94760100E010E0FF24FA9490
:10296000BC2EED2E80E090E09801220F331F220F45
:10297000331F220F331F23533F4FF901E80FF91F75
:10298000F082019688309105C1F7DB2CCE2C8B2D7F
:102990009E2D0E94A7040F5F1F4F0830110511F7ED
:1029A000CE01880F991F8C0F9D1F0E94A704C0E0C5
:1029B000D0E080E090E09E01220F331F220F331FF2
:1029C000220F331F23533F4FF901E80FF91F1082E5
:1029D000019688309105C1F78D2D9C2D0E94A7048A
:1029E0002196C830D10529F7DF91CF911F910F9122
:1029F000FF90EF90DF90CF90BF9008956F927F92FD
:102A00008F929F92AF92BF92CF92DF92EF92FF92FE
:102A10000F931F93CF93DF93181619060CF043C042
:102A20003A016B014C01A12CB12CDD2084F1E12C89
:102A3000F12C0E9456198C010E945619EC010E943B
:102A40005619A80147705078552334F44150510964
:102A5000486F5F6F4F5F5F4FBE016770707877237D
:102A600034F461507109686F7F6F6F5F7F4F8770BB
:102A70009078992324F40197886F9F6F01960E94A4
:102A800089008FEFE81AF80ACE14DF0494F6C30128
:102A90000E94A70480E00E9476018FEFA81AB80A6E
:102AA0008A149B0411F6DF91CF911F910F91FF9033
:102AB000EF90DF90CF90BF90AF909F908F907F90DE
:102AC0006F900895CF93DF93C1E0D0E048EC50E0E1
:102AD000BE0185E090E00E94FE142196C431D1052C
:102AE000A9F748EC50E0BE0185E090E00E94FE149A
:102AF0002197B9F7DF91CF910895CF93DF93EC0140
:102B0000CA01DD23DCF0FE0120E030E0E830F10511
:102B10007CF42830310564F4DF01AA0FBB1FAA0F33
:102B2000BB1FAA0FBB1FA353BF4FA20FB31F6C93B2
:102B30002F5F3F4F3197C217D30744F70E94A70476
:102B4000CE01DF91CF9108950F931F93CF93DF9321
:102B5000EB018A01892B49F080E190E0AE01B801D8
:102B60000E947D150197D2F70AC080E090E0AE0187
:102B7000B8010E947D15019680319105C4F3DF9163
:102B8000CF911F910F9108952F923F924F925F9294
:102B90006F927F928F929F92AF92BF92CF92DF926D
:102BA000EF92FF920F931F93CF93DF93CDB7DEB7D2
:102BB00064970FB6F894DEBF0FBECDBF98878F83A2
:102BC0002B015C874B873E872D87188B0F874F3FE4
:102BD0005F4F31F40F2EF7E02F2E312CF02D02C075
:102BE000212C312C89E090E0AC012F813885421BEB
:102BF000530B5A8749870E94561969857A850E9426
:102C0000DC189C838B830E94561969857A850E9403
:102C1000DC189A8389834D855E85141615060CF0A1
:102C200095C01E821D828F8198859A8B898B0E9408
:102C300056199C8B8B8B0E94561963E070E00E94A2
:102C4000DC189C01215031098B899C8963E070E07C
:102C50000E94DC1801974B815C81840F951F181628
:102C600019063CF449855A858417950714F49C830A
:102C70008B8389819A81280F391F121613063CF421
:102C800049855A852417350714F43A8329836B85BF
:102C90007C85842D0E94BB048F81988518161906A7
:102CA0000CF045C08B819C81AF80B884A80EB91E02
:102CB0008C0189809A8029893A89280D391D6C01F7
:102CC000C818D908881A990A3C8B2B8BE980FA809E
:102CD0003401600E711E5AE74516510431F4A1010A
:102CE000B701C8010E94890015C089E74816510440
:102CF00031F4A701B101C8010E9489000BC098E717
:102D00004916510439F4A6014E0D5F1DB301C101EE
:102D10000E9489002FEFE21AF20A4B895C894E1556
:102D20005F05C9F60F5F1F4F0A151B0579F68F85E2
:102D300098890E94A7048D819E8101969E838D8330
:102D40002D853E852817390709F071CF64960FB697
:102D5000F894DEBF0FBECDBFDF91CF911F910F91D1
:102D6000FF90EF90DF90CF90BF90AF909F908F90AB
:102D70007F906F905F904F903F902F90089581309B
:102D800019F4ECE1F0E002C0E0E0F0E01416150602
:102D90005CF4E657FF4FDB01640F751F84918D9340
:102DA0003196A617B707D1F70895EF92FF920F93C8
:102DB0001F93CF93DF93805290E0EC01CC0FDD1F87
:102DC000CC0FDD1F8C0F9D1FEC01C85CDF4F8B010A
:102DD0007B0185E0E80EF11CCE010E946619F80126
:102DE00081938F012196EE15FF05B1F7DF91CF9109
:102DF0001F910F91FF90EF900895CF93C42F70E033
:102E00009B0148E0849F200D311D1124C901805091
:102E100090400E94661990E002C095958795CA95EA
:102E2000E2F78170CF9108953F924F925F926F9237
:102E30007F928F929F92AF92BF92CF92DF92EF924A
:102E4000FF920F931F93CF93DF935C016B01CFEF42
:102E5000DFEF312C7A0181E0E81AF108CE018A0D0A
:102E60009B1D87709078992324F40197886F9F6F3A
:102E70000196482E592E0FEF1FEFC8018C0D9D1D96
:102E800087709078992324F40197886F9F6F01963B
:102E9000682E792E812C912C03C08FEF881A980A06
:102EA000209739F40115110521F481E08816910469
:102EB000A1F3A701480D591D47705078552334F4EC
:102EC00041505109486F5F6F4F5F5F4F662D772DFF
:102ED000842D952D0E9423018111339482E0881660
:102EE0009104DCF20F5F1F4F0230110531F621967D
:102EF000C230D10509F0B2CF832DDF91CF911F9160
:102F00000F91FF90EF90DF90CF90BF90AF909F9088
:102F10008F907F906F905F904F903F900895DF92D9
:102F2000EF92FF920F931F93CF93DF9380E00E9465
:102F3000FC01E12CF12C00E010E0C0E0D0E0AE019B
:102F4000B801C7010E941417D82EAE01B801C701FD
:102F50000E9423018823C1F081E08D1530F0AE017D
:102F6000B801C7010E94FC0017C083E08D1530F442
:102F7000AE01B801C7010E94FC000EC0AE01B8014D
:102F8000C7010E94AF0008C083E0D81205C0AE019F
:102F9000B801C7010E94AF002196C830D10579F66B
:102FA0000F5F1F4F0830110541F68FEFE81AF80A3E
:102FB00088E0E816F10409F0BECFDF91CF911F91B0
:102FC0000F91FF90EF90DF9008950F931F93CF9391
:102FD000DF9300E010E0A0E0B0E020E030E0B801D6
:102FE000660F771F660F771F660F771FEB01C357BA
:102FF000DF4F63537F4FFE01E20FF31F4081FB0160
:10300000E20FF31F9081491311962F5F3F4F283035
:10301000310589F70F5F1F4F08301105F1F6CD011B
:10302000DF91CF911F910F910895EF92FF920F932F
:103030001F93CF93DF93181619069CF47B018C0124
:10304000C0E0D0E00E948F170E94E517892B49F05D
:103050000E94B104C7010E94A70421960C171D0706
:1030600089F7DF91CF911F910F91FF90EF90089515
:103070008FEF8ABB9FE197BB84BB1BBA15BAC39A7B
:103080008AE083BD85B5856085BD85B5886085BDD1
:1030900014BC89B7806889BF10BC87E089B986E80D
:1030A00080BD88E18AB91CB80895CF93DF931F9241
:1030B000CDB7DEB70E94381881E080938C0082B3D0
:1030C00090E00E945B19789410E0612FCE01019688
:1030D0000E9471051F5F1A31B9F3F7CF1F920F924B
:1030E0000FB60F9211242F934F935F938F939F935B
:1030F000AF93BF93EF93FF9380910D0190910E01D9
:10310000A0910F01B09110010196A11DB11D8093F6
:103110000D0190930E01A0930F01B093100115BA09
:10312000C39A81E040E050E0E0918C00F0E0EE0FC7
:10313000FF1FEE0FFF1FEE0FFF1FE353FF4FE40FC4
:10314000F51F90819BBB98B3987F282F2770922BF7
:1031500098BB4F5F5F4F8F5F893031F7C3982091E5
:103160008C0081E090E002C0880F991F2A95E2F759
:1031700085BB80918C008F5F80938C0080918C0048
:10318000883011F410928C00FF91EF91BF91AF91B4
:103190009F918F915F914F912F910F900FBE0F9044
:1031A0001F9018951F920F920FB60F9211240F9037
:1031B0000FBE0F901F90189597FB072E16F40094E2
:1031C00007D077FD09D00E94F61807FC05D03EF421
:1031D000909581959F4F0895709561957F4F0895C3
:1031E000EE0FFF1F0590F491E02D0994AA1BBB1B65
:1031F00051E107C0AA1FBB1FA617B70710F0A61BF7
:10320000B70B881F991F5A95A9F780959095BC0117
:10321000CD0108958F929F92AF92BF92CF92DF928D
:10322000EF92FF92CF93DF93EC01688179818A81DD
:103230009B81611571058105910521F464E279EDA9
:103240008BE597E02DE133EF41E050E00E946E19ED
:1032500049015A019B01AC01A7EAB1E40E948D1912
:103260006B017C01ACEEB4EFA50194010E949B19A7
:10327000DC01CB018C0D9D1DAE1DBF1DB7FF03C032
:103280000197A109B04888839983AA83BB839F775C
:10329000DF91CF91FF90EF90DF90CF90BF90AF90F4
:1032A0009F908F9008950E940A19089580E690E0FB
:1032B0000E940A190895A0E0B0E080936000909306
:1032C0006100A0936200B09363000895E199FECF7E
:1032D0009FBB8EBBE09A99278DB30895052E97FB6F
:1032E0001EF400940E94851957FD07D00E94A01972
:1032F00007FC03D04EF40C948519509540953095F9
:1033000021953F4F4F4F5F4F089590958095709551
:1033100061957F4F8F4F9F4F08950E94C219A59FBF
:10332000900DB49F900DA49F800D911D11240895C0
:10333000B7FF0C948D190E948D19821B930B089571
:10334000A1E21A2EAA1BBB1BFD010DC0AA1FBB1FA9
:10335000EE1FFF1FA217B307E407F50720F0A21B1B
:10336000B30BE40BF50B661F771F881F991F1A9488
:1033700069F760957095809590959B01AC01BD01B2
:10338000CF010895A29FB001B39FC001A39F700D0C
:10339000811D1124911DB29F700D811D1124911D5D
:0633A0000895F894FFCF30
:1033A60001000000000102030405060701010203F3
:1033B60004050606020203030404050503030303CA
:0C33C60004040404524547494E41000035
:00000001FF
